{
  "contractName": "UpDown",
  "abi": [
    {
      "inputs": [],
      "payable": false,
      "stateMutability": "nonpayable",
      "type": "constructor"
    },
    {
      "constant": true,
      "inputs": [
        {
          "internalType": "uint256",
          "name": "",
          "type": "uint256"
        }
      ],
      "name": "bets",
      "outputs": [
        {
          "internalType": "uint256",
          "name": "",
          "type": "uint256"
        }
      ],
      "payable": false,
      "stateMutability": "view",
      "type": "function"
    },
    {
      "constant": true,
      "inputs": [
        {
          "internalType": "address",
          "name": "",
          "type": "address"
        },
        {
          "internalType": "uint256",
          "name": "",
          "type": "uint256"
        }
      ],
      "name": "betsPerGambler",
      "outputs": [
        {
          "internalType": "uint256",
          "name": "",
          "type": "uint256"
        }
      ],
      "payable": false,
      "stateMutability": "view",
      "type": "function"
    },
    {
      "constant": true,
      "inputs": [],
      "name": "owner",
      "outputs": [
        {
          "internalType": "address payable",
          "name": "",
          "type": "address"
        }
      ],
      "payable": false,
      "stateMutability": "view",
      "type": "function"
    },
    {
      "constant": false,
      "inputs": [
        {
          "internalType": "uint256",
          "name": "_time",
          "type": "uint256"
        }
      ],
      "name": "startGame",
      "outputs": [
        {
          "internalType": "uint256",
          "name": "",
          "type": "uint256"
        }
      ],
      "payable": false,
      "stateMutability": "nonpayable",
      "type": "function"
    },
    {
      "constant": false,
      "inputs": [
        {
          "internalType": "uint256",
          "name": "_side",
          "type": "uint256"
        }
      ],
      "name": "placeBet",
      "outputs": [],
      "payable": true,
      "stateMutability": "payable",
      "type": "function"
    },
    {
      "constant": false,
      "inputs": [
        {
          "internalType": "uint256",
          "name": "_bonus",
          "type": "uint256"
        }
      ],
      "name": "setBonus",
      "outputs": [],
      "payable": false,
      "stateMutability": "nonpayable",
      "type": "function"
    },
    {
      "constant": false,
      "inputs": [],
      "name": "withdrawGain",
      "outputs": [],
      "payable": false,
      "stateMutability": "nonpayable",
      "type": "function"
    },
    {
      "constant": false,
      "inputs": [
        {
          "internalType": "uint256",
          "name": "_winner",
          "type": "uint256"
        },
        {
          "internalType": "uint256",
          "name": "_loser",
          "type": "uint256"
        }
      ],
      "name": "reportResult",
      "outputs": [],
      "payable": false,
      "stateMutability": "nonpayable",
      "type": "function"
    }
  ],
  "bytecode": "0x60806040526000600460006101000a81548160ff02191690831515021790555034801561002b57600080fd5b5033600760006101000a81548173ffffffffffffffffffffffffffffffffffffffff021916908373ffffffffffffffffffffffffffffffffffffffff160217905550610ade8061007c6000396000f3fe60806040526004361061007b5760003560e01c80632b539c861161004e5780632b539c86146101a75780638da5cb5b146101be578063ad094f3d14610215578063e5ed1d591461025a5761007b565b806305f7fedf146100805780630b98f975146100ef57806310fe7c481461012a57806322af00fa14610158575b600080fd5b34801561008c57600080fd5b506100d9600480360360408110156100a357600080fd5b81019080803573ffffffffffffffffffffffffffffffffffffffff169060200190929190803590602001909291905050506102a9565b6040518082815260200191505060405180910390f35b3480156100fb57600080fd5b506101286004803603602081101561011257600080fd5b81019080803590602001909291905050506102ce565b005b6101566004803603602081101561014057600080fd5b810190808035906020019092919050505061039b565b005b34801561016457600080fd5b506101916004803603602081101561017b57600080fd5b810190808035906020019092919050505061051e565b6040518082815260200191505060405180910390f35b3480156101b357600080fd5b506101bc610536565b005b3480156101ca57600080fd5b506101d3610888565b604051808273ffffffffffffffffffffffffffffffffffffffff1673ffffffffffffffffffffffffffffffffffffffff16815260200191505060405180910390f35b34801561022157600080fd5b506102586004803603604081101561023857600080fd5b8101908080359060200190929190803590602001909291905050506108ae565b005b34801561026657600080fd5b506102936004803603602081101561027d57600080fd5b81019080803590602001909291905050506109a4565b6040518082815260200191505060405180910390f35b6006602052816000526040600020602052806000526040600020600091509150505481565b3373ffffffffffffffffffffffffffffffffffffffff16600760009054906101000a900473ffffffffffffffffffffffffffffffffffffffff1673ffffffffffffffffffffffffffffffffffffffff1614610391576040517f08c379a000000000000000000000000000000000000000000000000000000000815260040180806020018281038252600a8152602001807f4f6e6c79204f776e65720000000000000000000000000000000000000000000081525060200191505060405180910390fd5b80600a8190555050565b60011515600460009054906101000a900460ff16151514610424576040517f08c379a00000000000000000000000000000000000000000000000000000000081526004018080602001828103825260138152602001807f62696464696e672069732066696e69736865640000000000000000000000000081525060200191505060405180910390fd5b60085442111561049c576040517f08c379a00000000000000000000000000000000000000000000000000000000081526004018080602001828103825260088152602001807f54696d657320557000000000000000000000000000000000000000000000000081525060200191505060405180910390fd5b34600560008381526020019081526020016000206000828254019250508190555034600660003373ffffffffffffffffffffffffffffffffffffffff1673ffffffffffffffffffffffffffffffffffffffff16815260200190815260200160002060008381526020019081526020016000206000828254019250508190555050565b60056020528060005260406000206000915090505481565b6000600660003373ffffffffffffffffffffffffffffffffffffffff1673ffffffffffffffffffffffffffffffffffffffff1681526020019081526020016000206000600260000154815260200190815260200160002054905060008111610606576040517f08c379a000000000000000000000000000000000000000000000000000000000815260040180806020018281038252601f8152602001807f796f7520646f206e6f74206861766520616e792077696e6e696e67206265740081525060200191505060405180910390fd5b60001515600460009054906101000a900460ff1615151461068f576040517f08c379a00000000000000000000000000000000000000000000000000000000081526004018080602001828103825260188152602001807f62696464696e67206e6f742066696e697368656420796574000000000000000081525060200191505060405180910390fd5b600060646005600060026000015481526020019081526020016000205402600a5483600560006002600101548152602001908152602001600020540202816106d357fe5b0482019050600060646005600060026000015481526020019081526020016000205402600a54606403846005600060026001015481526020019081526020016000205402028161071f57fe5b04830190506000600660003373ffffffffffffffffffffffffffffffffffffffff1673ffffffffffffffffffffffffffffffffffffffff168152602001908152602001600020600080548152602001908152602001600020819055506000600660003373ffffffffffffffffffffffffffffffffffffffff1673ffffffffffffffffffffffffffffffffffffffff16815260200190815260200160002060006001548152602001908152602001600020819055503373ffffffffffffffffffffffffffffffffffffffff166108fc839081150290604051600060405180830381858888f19350505050158015610819573d6000803e3d6000fd5b50600760009054906101000a900473ffffffffffffffffffffffffffffffffffffffff1673ffffffffffffffffffffffffffffffffffffffff166108fc829081150290604051600060405180830381858888f19350505050158015610882573d6000803e3d6000fd5b50505050565b600760009054906101000a900473ffffffffffffffffffffffffffffffffffffffff1681565b3373ffffffffffffffffffffffffffffffffffffffff16600760009054906101000a900473ffffffffffffffffffffffffffffffffffffffff1673ffffffffffffffffffffffffffffffffffffffff1614610971576040517f08c379a000000000000000000000000000000000000000000000000000000000815260040180806020018281038252600a8152602001807f6f6e6c79204f776e65720000000000000000000000000000000000000000000081525060200191505060405180910390fd5b81600260000181905550806002600101819055506000600460006101000a81548160ff0219169083151502179055505050565b60003373ffffffffffffffffffffffffffffffffffffffff16600760009054906101000a900473ffffffffffffffffffffffffffffffffffffffff1673ffffffffffffffffffffffffffffffffffffffff1614610a69576040517f08c379a000000000000000000000000000000000000000000000000000000000815260040180806020018281038252600a8152602001807f4f6e6c79204f776e65720000000000000000000000000000000000000000000081525060200191505060405180910390fd5b6001600460006101000a81548160ff021916908315150217905550814201600881905550600960008154809291906001019190505550600954905091905056fea265627a7a723158208fff86f05d08e608cb3417c5a82cfadcc5783b3c583a4f70dafccd300f4efe6864736f6c63430005100032",
  "source": "// SPDX-License-Identifier: MIT\npragma solidity 0.5.16;\n\ncontract UpDown {\n  uint Up;\n  uint Down;\n  \n  struct Result {\n    uint winner;\n    uint loser;\n  }\n  Result result;\n  bool biddingOpen = false;\n\n  mapping (uint => uint ) public bets;\n  mapping(address => mapping(uint => uint)) public betsPerGambler;\n  \n  address payable public owner;\n   constructor() public {\n    owner = msg.sender; \n  }\n\n  uint time;\n  uint gameIndex;\n\n  function startGame(uint _time) public returns(uint) {\n    require(owner == msg.sender, \"Only Owner\");\n    biddingOpen = true;\n    time = block.timestamp + _time;\n    gameIndex++;\n    return (gameIndex);\n  }\n\n  function placeBet(uint _side )  public payable {\n    require(biddingOpen  == true, 'bidding is finished');\n    require(block.timestamp <= time, \"Times Up\");\n    bets[_side] += msg.value;\n    betsPerGambler[msg.sender][_side] += msg.value;\n  }\n\n  uint bonus;\n\n  function setBonus(uint _bonus) public {\n      require(owner == msg.sender, \"Only Owner\");\n      bonus = _bonus;\n  }\n\n  function withdrawGain() external {\n    uint gamblerBet = betsPerGambler[msg.sender][result.winner];\n    require(gamblerBet > 0, 'you do not have any winning bet');  \n    require(biddingOpen  == false, 'bidding not finished yet');\n    uint gain = gamblerBet + bets[result.loser] * gamblerBet * bonus / (bets[result.winner]*100);\n    uint ownergain = gamblerBet + bets[result.loser] * gamblerBet * (100-bonus) / (bets[result.winner]*100);\n    betsPerGambler[msg.sender][Up] = 0;\n    betsPerGambler[msg.sender][Down] = 0;\n    msg.sender.transfer(gain);\n    owner.transfer(ownergain);\n  }\n\n  function reportResult(uint _winner, uint _loser) public {\n    require(owner == msg.sender, 'only Owner');\n    result.winner = _winner;\n    result.loser = _loser;\n    biddingOpen  = false;\n  }\n  \n}",
  "sourcePath": "/home/dell/workspace/upDown/contracts/UpDown.sol",
  "compiler": {
    "name": "solc",
    "version": "0.5.16+commit.9c3226ce.Emscripten.clang"
  },
  "schemaVersion": "3.3.2",
  "updatedAt": "2020-11-27T13:27:04.690Z",
  "networkType": "ethereum",
  "devdoc": {
    "methods": {}
  },
  "userdoc": {
    "methods": {}
  }
}